{
  "_format": "hh-sol-artifact-1",
  "contractName": "PatientRegistration",
  "sourceName": "contracts/patientRegistration.sol",
  "abi": [
    {
      "inputs": [
        {
          "internalType": "uint256",
          "name": "id",
          "type": "uint256"
        }
      ],
      "name": "getPatient",
      "outputs": [
        {
          "internalType": "string",
          "name": "name",
          "type": "string"
        },
        {
          "internalType": "uint256",
          "name": "age",
          "type": "uint256"
        },
        {
          "internalType": "string",
          "name": "gender",
          "type": "string"
        },
        {
          "internalType": "string",
          "name": "addr",
          "type": "string"
        },
        {
          "internalType": "string",
          "name": "medicalHistory",
          "type": "string"
        }
      ],
      "stateMutability": "view",
      "type": "function"
    },
    {
      "inputs": [],
      "name": "patientCount",
      "outputs": [
        {
          "internalType": "uint256",
          "name": "",
          "type": "uint256"
        }
      ],
      "stateMutability": "view",
      "type": "function"
    },
    {
      "inputs": [
        {
          "internalType": "uint256",
          "name": "",
          "type": "uint256"
        }
      ],
      "name": "patients",
      "outputs": [
        {
          "internalType": "string",
          "name": "name",
          "type": "string"
        },
        {
          "internalType": "uint256",
          "name": "age",
          "type": "uint256"
        },
        {
          "internalType": "string",
          "name": "gender",
          "type": "string"
        },
        {
          "internalType": "string",
          "name": "addr",
          "type": "string"
        },
        {
          "internalType": "string",
          "name": "medicalHistory",
          "type": "string"
        }
      ],
      "stateMutability": "view",
      "type": "function"
    },
    {
      "inputs": [
        {
          "internalType": "string",
          "name": "name",
          "type": "string"
        },
        {
          "internalType": "uint256",
          "name": "age",
          "type": "uint256"
        },
        {
          "internalType": "string",
          "name": "gender",
          "type": "string"
        },
        {
          "internalType": "string",
          "name": "addr",
          "type": "string"
        },
        {
          "internalType": "string",
          "name": "medicalHistory",
          "type": "string"
        }
      ],
      "name": "registerPatient",
      "outputs": [],
      "stateMutability": "nonpayable",
      "type": "function"
    }
  ],
  "bytecode": "0x6080604052600060015534801561001557600080fd5b50610e02806100256000396000f3fe608060405234801561001057600080fd5b506004361061004c5760003560e01c80632b6613c8146100515780637d3a67961461006d57806393119a83146100a1578063a0303c41146100d5575b600080fd5b61006b60048036038101906100669190610847565b6100f3565b005b61008760048036038101906100829190610932565b6101b2565b6040516100989594939291906109ed565b60405180910390f35b6100bb60048036038101906100b69190610932565b61045b565b6040516100cc9594939291906109ed565b60405180910390f35b6100dd6106b1565b6040516100ea9190610a5c565b60405180910390f35b6040518060a0016040528086815260200185815260200184815260200183815260200182815250600080600154815260200190815260200160002060008201518160000190816101439190610c83565b506020820151816001015560408201518160020190816101639190610c83565b5060608201518160030190816101799190610c83565b50608082015181600401908161018f9190610c83565b50905050600160008154809291906101a690610d84565b91905055505050505050565b60606000606080606060008060008881526020019081526020016000206040518060a00160405290816000820180546101ea90610aa6565b80601f016020809104026020016040519081016040528092919081815260200182805461021690610aa6565b80156102635780601f1061023857610100808354040283529160200191610263565b820191906000526020600020905b81548152906001019060200180831161024657829003601f168201915b505050505081526020016001820154815260200160028201805461028690610aa6565b80601f01602080910402602001604051908101604052809291908181526020018280546102b290610aa6565b80156102ff5780601f106102d4576101008083540402835291602001916102ff565b820191906000526020600020905b8154815290600101906020018083116102e257829003601f168201915b5050505050815260200160038201805461031890610aa6565b80601f016020809104026020016040519081016040528092919081815260200182805461034490610aa6565b80156103915780601f1061036657610100808354040283529160200191610391565b820191906000526020600020905b81548152906001019060200180831161037457829003601f168201915b505050505081526020016004820180546103aa90610aa6565b80601f01602080910402602001604051908101604052809291908181526020018280546103d690610aa6565b80156104235780601f106103f857610100808354040283529160200191610423565b820191906000526020600020905b81548152906001019060200180831161040657829003601f168201915b505050505081525050905080600001518160200151826040015183606001518460800151955095509550955095505091939590929450565b600060205280600052604060002060009150905080600001805461047e90610aa6565b80601f01602080910402602001604051908101604052809291908181526020018280546104aa90610aa6565b80156104f75780601f106104cc576101008083540402835291602001916104f7565b820191906000526020600020905b8154815290600101906020018083116104da57829003601f168201915b50505050509080600101549080600201805461051290610aa6565b80601f016020809104026020016040519081016040528092919081815260200182805461053e90610aa6565b801561058b5780601f106105605761010080835404028352916020019161058b565b820191906000526020600020905b81548152906001019060200180831161056e57829003601f168201915b5050505050908060030180546105a090610aa6565b80601f01602080910402602001604051908101604052809291908181526020018280546105cc90610aa6565b80156106195780601f106105ee57610100808354040283529160200191610619565b820191906000526020600020905b8154815290600101906020018083116105fc57829003601f168201915b50505050509080600401805461062e90610aa6565b80601f016020809104026020016040519081016040528092919081815260200182805461065a90610aa6565b80156106a75780601f1061067c576101008083540402835291602001916106a7565b820191906000526020600020905b81548152906001019060200180831161068a57829003601f168201915b5050505050905085565b60015481565b6000604051905090565b600080fd5b600080fd5b600080fd5b600080fd5b6000601f19601f8301169050919050565b7f4e487b7100000000000000000000000000000000000000000000000000000000600052604160045260246000fd5b61071e826106d5565b810181811067ffffffffffffffff8211171561073d5761073c6106e6565b5b80604052505050565b60006107506106b7565b905061075c8282610715565b919050565b600067ffffffffffffffff82111561077c5761077b6106e6565b5b610785826106d5565b9050602081019050919050565b82818337600083830152505050565b60006107b46107af84610761565b610746565b9050828152602081018484840111156107d0576107cf6106d0565b5b6107db848285610792565b509392505050565b600082601f8301126107f8576107f76106cb565b5b81356108088482602086016107a1565b91505092915050565b6000819050919050565b61082481610811565b811461082f57600080fd5b50565b6000813590506108418161081b565b92915050565b600080600080600060a08688031215610863576108626106c1565b5b600086013567ffffffffffffffff811115610881576108806106c6565b5b61088d888289016107e3565b955050602061089e88828901610832565b945050604086013567ffffffffffffffff8111156108bf576108be6106c6565b5b6108cb888289016107e3565b935050606086013567ffffffffffffffff8111156108ec576108eb6106c6565b5b6108f8888289016107e3565b925050608086013567ffffffffffffffff811115610919576109186106c6565b5b610925888289016107e3565b9150509295509295909350565b600060208284031215610948576109476106c1565b5b600061095684828501610832565b91505092915050565b600081519050919050565b600082825260208201905092915050565b60005b8381101561099957808201518184015260208101905061097e565b60008484015250505050565b60006109b08261095f565b6109ba818561096a565b93506109ca81856020860161097b565b6109d3816106d5565b840191505092915050565b6109e781610811565b82525050565b600060a0820190508181036000830152610a0781886109a5565b9050610a1660208301876109de565b8181036040830152610a2881866109a5565b90508181036060830152610a3c81856109a5565b90508181036080830152610a5081846109a5565b90509695505050505050565b6000602082019050610a7160008301846109de565b92915050565b7f4e487b7100000000000000000000000000000000000000000000000000000000600052602260045260246000fd5b60006002820490506001821680610abe57607f821691505b602082108103610ad157610ad0610a77565b5b50919050565b60008190508160005260206000209050919050565b60006020601f8301049050919050565b600082821b905092915050565b600060088302610b397fffffffffffffffffffffffffffffffffffffffffffffffffffffffffffffffff82610afc565b610b438683610afc565b95508019841693508086168417925050509392505050565b6000819050919050565b6000610b80610b7b610b7684610811565b610b5b565b610811565b9050919050565b6000819050919050565b610b9a83610b65565b610bae610ba682610b87565b848454610b09565b825550505050565b600090565b610bc3610bb6565b610bce818484610b91565b505050565b5b81811015610bf257610be7600082610bbb565b600181019050610bd4565b5050565b601f821115610c3757610c0881610ad7565b610c1184610aec565b81016020851015610c20578190505b610c34610c2c85610aec565b830182610bd3565b50505b505050565b600082821c905092915050565b6000610c5a60001984600802610c3c565b1980831691505092915050565b6000610c738383610c49565b9150826002028217905092915050565b610c8c8261095f565b67ffffffffffffffff811115610ca557610ca46106e6565b5b610caf8254610aa6565b610cba828285610bf6565b600060209050601f831160018114610ced5760008415610cdb578287015190505b610ce58582610c67565b865550610d4d565b601f198416610cfb86610ad7565b60005b82811015610d2357848901518255600182019150602085019450602081019050610cfe565b86831015610d405784890151610d3c601f891682610c49565b8355505b6001600288020188555050505b505050505050565b7f4e487b7100000000000000000000000000000000000000000000000000000000600052601160045260246000fd5b6000610d8f82610811565b91507fffffffffffffffffffffffffffffffffffffffffffffffffffffffffffffffff8203610dc157610dc0610d55565b5b60018201905091905056fea2646970667358221220d29523cf3d4bd15c258d8bb6359843219fb67b0221ca024645b5e574286920ee64736f6c63430008180033",
  "linkReferences": {},
  "deployedLinkReferences": {}
}