{
  "_format": "hh-sol-artifact-1",
  "contractName": "PatientRegistry",
  "sourceName": "contracts/patientRegistration.sol",
  "abi": [
    {
      "inputs": [
        {
          "internalType": "address",
          "name": "patientAddress",
          "type": "address"
        }
      ],
      "name": "getPatient",
      "outputs": [
        {
          "internalType": "string",
          "name": "name",
          "type": "string"
        },
        {
          "internalType": "uint256",
          "name": "age",
          "type": "uint256"
        },
        {
          "internalType": "string",
          "name": "gender",
          "type": "string"
        },
        {
          "internalType": "string",
          "name": "addr",
          "type": "string"
        },
        {
          "internalType": "string",
          "name": "medicalHistory",
          "type": "string"
        }
      ],
      "stateMutability": "view",
      "type": "function"
    },
    {
      "inputs": [
        {
          "internalType": "address",
          "name": "",
          "type": "address"
        }
      ],
      "name": "patients",
      "outputs": [
        {
          "internalType": "bool",
          "name": "registered",
          "type": "bool"
        },
        {
          "internalType": "string",
          "name": "name",
          "type": "string"
        },
        {
          "internalType": "uint256",
          "name": "age",
          "type": "uint256"
        },
        {
          "internalType": "string",
          "name": "gender",
          "type": "string"
        },
        {
          "internalType": "string",
          "name": "addr",
          "type": "string"
        },
        {
          "internalType": "string",
          "name": "medicalHistory",
          "type": "string"
        }
      ],
      "stateMutability": "view",
      "type": "function"
    },
    {
      "inputs": [
        {
          "internalType": "string",
          "name": "name",
          "type": "string"
        },
        {
          "internalType": "uint256",
          "name": "age",
          "type": "uint256"
        },
        {
          "internalType": "string",
          "name": "gender",
          "type": "string"
        },
        {
          "internalType": "string",
          "name": "addr",
          "type": "string"
        },
        {
          "internalType": "string",
          "name": "medicalHistory",
          "type": "string"
        }
      ],
      "name": "registerPatient",
      "outputs": [],
      "stateMutability": "nonpayable",
      "type": "function"
    }
  ],
  "bytecode": "0x608060405234801561001057600080fd5b50610fc7806100206000396000f3fe608060405234801561001057600080fd5b50600436106100415760003560e01c80630869cfbc146100465780632b6613c81461007b578063b5368e2014610097575b600080fd5b610060600480360381019061005b919061081e565b6100cb565b6040516100729695949392919061090f565b60405180910390f35b61009560048036038101906100909190610aed565b610334565b005b6100b160048036038101906100ac919061081e565b61042e565b6040516100c2959493929190610bd8565b60405180910390f35b60006020528060005260406000206000915090508060000160009054906101000a900460ff169080600101805461010190610c76565b80601f016020809104026020016040519081016040528092919081815260200182805461012d90610c76565b801561017a5780601f1061014f5761010080835404028352916020019161017a565b820191906000526020600020905b81548152906001019060200180831161015d57829003601f168201915b50505050509080600201549080600301805461019590610c76565b80601f01602080910402602001604051908101604052809291908181526020018280546101c190610c76565b801561020e5780601f106101e35761010080835404028352916020019161020e565b820191906000526020600020905b8154815290600101906020018083116101f157829003601f168201915b50505050509080600401805461022390610c76565b80601f016020809104026020016040519081016040528092919081815260200182805461024f90610c76565b801561029c5780601f106102715761010080835404028352916020019161029c565b820191906000526020600020905b81548152906001019060200180831161027f57829003601f168201915b5050505050908060050180546102b190610c76565b80601f01602080910402602001604051908101604052809291908181526020018280546102dd90610c76565b801561032a5780601f106102ff5761010080835404028352916020019161032a565b820191906000526020600020905b81548152906001019060200180831161030d57829003601f168201915b5050505050905086565b6040518060c00160405280600115158152602001868152602001858152602001848152602001838152602001828152506000803373ffffffffffffffffffffffffffffffffffffffff1673ffffffffffffffffffffffffffffffffffffffff16815260200190815260200160002060008201518160000160006101000a81548160ff02191690831515021790555060208201518160010190816103d79190610e53565b506040820151816002015560608201518160030190816103f79190610e53565b50608082015181600401908161040d9190610e53565b5060a08201518160050190816104239190610e53565b509050505050505050565b6060600060608060606000808773ffffffffffffffffffffffffffffffffffffffff1673ffffffffffffffffffffffffffffffffffffffff16815260200190815260200160002060000160009054906101000a900460ff166104c5576040517f08c379a00000000000000000000000000000000000000000000000000000000081526004016104bc90610f71565b60405180910390fd5b60008060008873ffffffffffffffffffffffffffffffffffffffff1673ffffffffffffffffffffffffffffffffffffffff1681526020019081526020016000206040518060c00160405290816000820160009054906101000a900460ff1615151515815260200160018201805461053b90610c76565b80601f016020809104026020016040519081016040528092919081815260200182805461056790610c76565b80156105b45780601f10610589576101008083540402835291602001916105b4565b820191906000526020600020905b81548152906001019060200180831161059757829003601f168201915b50505050508152602001600282015481526020016003820180546105d790610c76565b80601f016020809104026020016040519081016040528092919081815260200182805461060390610c76565b80156106505780601f1061062557610100808354040283529160200191610650565b820191906000526020600020905b81548152906001019060200180831161063357829003601f168201915b5050505050815260200160048201805461066990610c76565b80601f016020809104026020016040519081016040528092919081815260200182805461069590610c76565b80156106e25780601f106106b7576101008083540402835291602001916106e2565b820191906000526020600020905b8154815290600101906020018083116106c557829003601f168201915b505050505081526020016005820180546106fb90610c76565b80601f016020809104026020016040519081016040528092919081815260200182805461072790610c76565b80156107745780601f1061074957610100808354040283529160200191610774565b820191906000526020600020905b81548152906001019060200180831161075757829003601f168201915b505050505081525050905080602001518160400151826060015183608001518460a00151955095509550955095505091939590929450565b6000604051905090565b600080fd5b600080fd5b600073ffffffffffffffffffffffffffffffffffffffff82169050919050565b60006107eb826107c0565b9050919050565b6107fb816107e0565b811461080657600080fd5b50565b600081359050610818816107f2565b92915050565b600060208284031215610834576108336107b6565b5b600061084284828501610809565b91505092915050565b60008115159050919050565b6108608161084b565b82525050565b600081519050919050565b600082825260208201905092915050565b60005b838110156108a0578082015181840152602081019050610885565b60008484015250505050565b6000601f19601f8301169050919050565b60006108c882610866565b6108d28185610871565b93506108e2818560208601610882565b6108eb816108ac565b840191505092915050565b6000819050919050565b610909816108f6565b82525050565b600060c0820190506109246000830189610857565b818103602083015261093681886108bd565b90506109456040830187610900565b818103606083015261095781866108bd565b9050818103608083015261096b81856108bd565b905081810360a083015261097f81846108bd565b9050979650505050505050565b600080fd5b600080fd5b7f4e487b7100000000000000000000000000000000000000000000000000000000600052604160045260246000fd5b6109ce826108ac565b810181811067ffffffffffffffff821117156109ed576109ec610996565b5b80604052505050565b6000610a006107ac565b9050610a0c82826109c5565b919050565b600067ffffffffffffffff821115610a2c57610a2b610996565b5b610a35826108ac565b9050602081019050919050565b82818337600083830152505050565b6000610a64610a5f84610a11565b6109f6565b905082815260208101848484011115610a8057610a7f610991565b5b610a8b848285610a42565b509392505050565b600082601f830112610aa857610aa761098c565b5b8135610ab8848260208601610a51565b91505092915050565b610aca816108f6565b8114610ad557600080fd5b50565b600081359050610ae781610ac1565b92915050565b600080600080600060a08688031215610b0957610b086107b6565b5b600086013567ffffffffffffffff811115610b2757610b266107bb565b5b610b3388828901610a93565b9550506020610b4488828901610ad8565b945050604086013567ffffffffffffffff811115610b6557610b646107bb565b5b610b7188828901610a93565b935050606086013567ffffffffffffffff811115610b9257610b916107bb565b5b610b9e88828901610a93565b925050608086013567ffffffffffffffff811115610bbf57610bbe6107bb565b5b610bcb88828901610a93565b9150509295509295909350565b600060a0820190508181036000830152610bf281886108bd565b9050610c016020830187610900565b8181036040830152610c1381866108bd565b90508181036060830152610c2781856108bd565b90508181036080830152610c3b81846108bd565b90509695505050505050565b7f4e487b7100000000000000000000000000000000000000000000000000000000600052602260045260246000fd5b60006002820490506001821680610c8e57607f821691505b602082108103610ca157610ca0610c47565b5b50919050565b60008190508160005260206000209050919050565b60006020601f8301049050919050565b600082821b905092915050565b600060088302610d097fffffffffffffffffffffffffffffffffffffffffffffffffffffffffffffffff82610ccc565b610d138683610ccc565b95508019841693508086168417925050509392505050565b6000819050919050565b6000610d50610d4b610d46846108f6565b610d2b565b6108f6565b9050919050565b6000819050919050565b610d6a83610d35565b610d7e610d7682610d57565b848454610cd9565b825550505050565b600090565b610d93610d86565b610d9e818484610d61565b505050565b5b81811015610dc257610db7600082610d8b565b600181019050610da4565b5050565b601f821115610e0757610dd881610ca7565b610de184610cbc565b81016020851015610df0578190505b610e04610dfc85610cbc565b830182610da3565b50505b505050565b600082821c905092915050565b6000610e2a60001984600802610e0c565b1980831691505092915050565b6000610e438383610e19565b9150826002028217905092915050565b610e5c82610866565b67ffffffffffffffff811115610e7557610e74610996565b5b610e7f8254610c76565b610e8a828285610dc6565b600060209050601f831160018114610ebd5760008415610eab578287015190505b610eb58582610e37565b865550610f1d565b601f198416610ecb86610ca7565b60005b82811015610ef357848901518255600182019150602085019450602081019050610ece565b86831015610f105784890151610f0c601f891682610e19565b8355505b6001600288020188555050505b505050505050565b7f50617469656e74206e6f7420666f756e64000000000000000000000000000000600082015250565b6000610f5b601183610871565b9150610f6682610f25565b602082019050919050565b60006020820190508181036000830152610f8a81610f4e565b905091905056fea2646970667358221220d4775859f045dbb9ed665d0c8e5bda093a6e83689bb578f00a9a1576a2bc9dc064736f6c63430008180033",
  "linkReferences": {},
  "deployedLinkReferences": {}
}